{
  "contractName": "Vesting",
  "abi": [
    {
      "inputs": [],
      "stateMutability": "nonpayable",
      "type": "constructor"
    },
    {
      "inputs": [],
      "name": "getPayout",
      "outputs": [
        {
          "internalType": "uint256",
          "name": "",
          "type": "uint256"
        }
      ],
      "stateMutability": "view",
      "type": "function",
      "constant": true
    },
    {
      "inputs": [],
      "name": "getAccounts",
      "outputs": [
        {
          "internalType": "address[]",
          "name": "",
          "type": "address[]"
        }
      ],
      "stateMutability": "view",
      "type": "function",
      "constant": true
    },
    {
      "inputs": [],
      "name": "getLastPayout",
      "outputs": [
        {
          "internalType": "uint256",
          "name": "",
          "type": "uint256"
        }
      ],
      "stateMutability": "view",
      "type": "function",
      "constant": true
    },
    {
      "inputs": [],
      "name": "getAddresses",
      "outputs": [
        {
          "internalType": "address[]",
          "name": "",
          "type": "address[]"
        }
      ],
      "stateMutability": "view",
      "type": "function",
      "constant": true
    },
    {
      "inputs": [],
      "name": "getAmount",
      "outputs": [
        {
          "internalType": "uint256",
          "name": "",
          "type": "uint256"
        }
      ],
      "stateMutability": "view",
      "type": "function",
      "constant": true
    },
    {
      "inputs": [],
      "name": "isAccountsSet",
      "outputs": [
        {
          "internalType": "bool",
          "name": "",
          "type": "bool"
        }
      ],
      "stateMutability": "view",
      "type": "function",
      "constant": true
    },
    {
      "inputs": [
        {
          "internalType": "address",
          "name": "_tokenAddress",
          "type": "address"
        }
      ],
      "name": "setTokenAddress",
      "outputs": [],
      "stateMutability": "nonpayable",
      "type": "function"
    },
    {
      "inputs": [
        {
          "internalType": "address[]",
          "name": "_accounts",
          "type": "address[]"
        }
      ],
      "name": "addAddresses",
      "outputs": [],
      "stateMutability": "nonpayable",
      "type": "function"
    },
    {
      "inputs": [],
      "name": "withdraw",
      "outputs": [],
      "stateMutability": "nonpayable",
      "type": "function"
    }
  ],
  "bytecode": "0x608060405234801561001057600080fd5b504260018190555060015460028190555033600360006101000a81548173ffffffffffffffffffffffffffffffffffffffff021916908373ffffffffffffffffffffffffffffffffffffffff16021790555061170e806100716000396000f3fe608060405234801561001057600080fd5b50600436106100935760003560e01c80637d065c93116100665780637d065c93146100f85780638a48ac0314610116578063a39fac1214610134578063d321fe2914610152578063fff84a581461017057610093565b806308cfaa4a1461009857806326a4e8d2146100b65780633628731c146100d25780633ccfd60b146100ee575b600080fd5b6100a061018e565b6040516100ad919061139e565b60405180910390f35b6100d060048036038101906100cb9190610def565b610198565b005b6100ec60048036038101906100e79190610e18565b6103ff565b005b6100f6610672565b005b610100610bab565b60405161010d919061139e565b60405180910390f35b61011e610bb5565b60405161012b9190611221565b60405180910390f35b61013c610c43565b6040516101499190611221565b60405180910390f35b61015a610cd1565b604051610167919061139e565b60405180910390f35b610178610d0a565b6040516101859190611243565b60405180910390f35b6000600254905090565b600360009054906101000a900473ffffffffffffffffffffffffffffffffffffffff1673ffffffffffffffffffffffffffffffffffffffff163373ffffffffffffffffffffffffffffffffffffffff1614610228576040517f08c379a000000000000000000000000000000000000000000000000000000000815260040161021f906112de565b60405180910390fd5b600073ffffffffffffffffffffffffffffffffffffffff168173ffffffffffffffffffffffffffffffffffffffff161415610298576040517f08c379a000000000000000000000000000000000000000000000000000000000815260040161028f906112be565b60405180910390fd5b600073ffffffffffffffffffffffffffffffffffffffff16600560009054906101000a900473ffffffffffffffffffffffffffffffffffffffff1673ffffffffffffffffffffffffffffffffffffffff1614610329576040517f08c379a00000000000000000000000000000000000000000000000000000000081526004016103209061125e565b60405180910390fd5b80600560006101000a81548173ffffffffffffffffffffffffffffffffffffffff021916908373ffffffffffffffffffffffffffffffffffffffff160217905550620805208173ffffffffffffffffffffffffffffffffffffffff166318160ddd6040518163ffffffff1660e01b815260040160206040518083038186803b1580156103b457600080fd5b505afa1580156103c8573d6000803e3d6000fd5b505050506040513d601f19601f820116820180604052508101906103ec9190610e82565b6103f691906114b6565b60068190555050565b600360009054906101000a900473ffffffffffffffffffffffffffffffffffffffff1673ffffffffffffffffffffffffffffffffffffffff163373ffffffffffffffffffffffffffffffffffffffff161461048f576040517f08c379a0000000000000000000000000000000000000000000000000000000008152600401610486906112de565b60405180910390fd5b600a8151146104d3576040517f08c379a00000000000000000000000000000000000000000000000000000000081526004016104ca9061137e565b60405180910390fd5b600080805490501461051a576040517f08c379a00000000000000000000000000000000000000000000000000000000081526004016105119061129e565b60405180910390fd5b600073ffffffffffffffffffffffffffffffffffffffff16600560009054906101000a900473ffffffffffffffffffffffffffffffffffffffff1673ffffffffffffffffffffffffffffffffffffffff1614156105ac576040517f08c379a00000000000000000000000000000000000000000000000000000000081526004016105a39061135e565b60405180910390fd5b60005b815181101561066e5760008282815181106105f3577f4e487b7100000000000000000000000000000000000000000000000000000000600052603260045260246000fd5b60200260200101519080600181540180825580915050600190039060005260206000200160009091909190916101000a81548173ffffffffffffffffffffffffffffffffffffffff021916908373ffffffffffffffffffffffffffffffffffffffff1602179055508080610666906115bd565b9150506105af565b5050565b600360009054906101000a900473ffffffffffffffffffffffffffffffffffffffff1673ffffffffffffffffffffffffffffffffffffffff163373ffffffffffffffffffffffffffffffffffffffff1614610702576040517f08c379a00000000000000000000000000000000000000000000000000000000081526004016106f9906112de565b60405180910390fd5b600a6000805490501461074a576040517f08c379a00000000000000000000000000000000000000000000000000000000081526004016107419061133e565b60405180910390fd5b60006002544261075a9190611541565b9050603c8110156107a0576040517f08c379a0000000000000000000000000000000000000000000000000000000008152600401610797906112fe565b60405180910390fd5b600073ffffffffffffffffffffffffffffffffffffffff16600560009054906101000a900473ffffffffffffffffffffffffffffffffffffffff1673ffffffffffffffffffffffffffffffffffffffff161415610832576040517f08c379a00000000000000000000000000000000000000000000000000000000081526004016108299061127e565b60405180910390fd5b6000600560009054906101000a900473ffffffffffffffffffffffffffffffffffffffff16905060008173ffffffffffffffffffffffffffffffffffffffff166370a08231306040518263ffffffff1660e01b815260040161089491906111dd565b60206040518083038186803b1580156108ac57600080fd5b505afa1580156108c0573d6000803e3d6000fd5b505050506040513d601f19601f820116820180604052508101906108e49190610e82565b11610924576040517f08c379a000000000000000000000000000000000000000000000000000000000815260040161091b9061131e565b60405180910390fd5b6000603c8361093391906114b6565b905060006006548261094591906114e7565b90508273ffffffffffffffffffffffffffffffffffffffff166370a08231306040518263ffffffff1660e01b815260040161098091906111dd565b60206040518083038186803b15801561099857600080fd5b505afa1580156109ac573d6000803e3d6000fd5b505050506040513d601f19601f820116820180604052508101906109d09190610e82565b811115610a63578273ffffffffffffffffffffffffffffffffffffffff166370a08231306040518263ffffffff1660e01b8152600401610a1091906111dd565b60206040518083038186803b158015610a2857600080fd5b505afa158015610a3c573d6000803e3d6000fd5b505050506040513d601f19601f82011682018060405250810190610a609190610e82565b90505b60005b600080549050811015610b84578373ffffffffffffffffffffffffffffffffffffffff1663a9059cbb60008381548110610ac9577f4e487b7100000000000000000000000000000000000000000000000000000000600052603260045260246000fd5b9060005260206000200160009054906101000a900473ffffffffffffffffffffffffffffffffffffffff16600a85610b0191906114b6565b6040518363ffffffff1660e01b8152600401610b1e9291906111f8565b602060405180830381600087803b158015610b3857600080fd5b505af1158015610b4c573d6000803e3d6000fd5b505050506040513d601f19601f82011682018060405250810190610b709190610e59565b508080610b7c906115bd565b915050610a66565b50603c82610b9291906114e7565b600254610b9f9190611460565b60028190555050505050565b6000600654905090565b60606000805480602002602001604051908101604052809291908181526020018280548015610c3957602002820191906000526020600020905b8160009054906101000a900473ffffffffffffffffffffffffffffffffffffffff1673ffffffffffffffffffffffffffffffffffffffff1681526020019060010190808311610bef575b5050505050905090565b60606000805480602002602001604051908101604052809291908181526020018280548015610cc757602002820191906000526020600020905b8160009054906101000a900473ffffffffffffffffffffffffffffffffffffffff1673ffffffffffffffffffffffffffffffffffffffff1681526020019060010190808311610c7d575b5050505050905090565b60008060025442610ce29190611541565b90506000600654603c83610cf691906114b6565b610d0091906114e7565b9050809250505090565b6000600a60008054905014905090565b6000610d2d610d28846113ea565b6113b9565b90508083825260208201905082856020860282011115610d4c57600080fd5b60005b85811015610d7c5781610d628882610d86565b845260208401935060208301925050600181019050610d4f565b5050509392505050565b600081359050610d9581611693565b92915050565b600082601f830112610dac57600080fd5b8135610dbc848260208601610d1a565b91505092915050565b600081519050610dd4816116aa565b92915050565b600081519050610de9816116c1565b92915050565b600060208284031215610e0157600080fd5b6000610e0f84828501610d86565b91505092915050565b600060208284031215610e2a57600080fd5b600082013567ffffffffffffffff811115610e4457600080fd5b610e5084828501610d9b565b91505092915050565b600060208284031215610e6b57600080fd5b6000610e7984828501610dc5565b91505092915050565b600060208284031215610e9457600080fd5b6000610ea284828501610dda565b91505092915050565b6000610eb78383610ec3565b60208301905092915050565b610ecc81611575565b82525050565b610edb81611575565b82525050565b6000610eec82611426565b610ef6818561143e565b9350610f0183611416565b8060005b83811015610f32578151610f198882610eab565b9750610f2483611431565b925050600181019050610f05565b5085935050505092915050565b610f4881611587565b82525050565b6000610f5b601c8361144f565b91507f746f6b656e206164647265737320697320616c726561647920736574000000006000830152602082019050919050565b6000610f9b601a8361144f565b91507f4e6f20746f6b656e2061646472657373207370656369666965640000000000006000830152602082019050919050565b6000610fdb60148361144f565b91507f4163636f756e747320616c7265616479207365740000000000000000000000006000830152602082019050919050565b600061101b60198361144f565b91507f746f6b656e20616464726573732063616e6e6f742062652030000000000000006000830152602082019050919050565b600061105b60158361144f565b91507f4f6e6c792061646d696e20697320616c6c6f77656400000000000000000000006000830152602082019050919050565b600061109b601a8361144f565b91507f4e6f7420656e6f7567682074696d6520686173207061737365640000000000006000830152602082019050919050565b60006110db601a8361144f565b91507f416c6c207061796f7574732068617665206265656e20646f6e650000000000006000830152602082019050919050565b600061111b601a8361144f565b91507f4163636f756e74732068617665206e6f74206265656e207365740000000000006000830152602082019050919050565b600061115b60188361144f565b91507f546f6b656e2041646472657373206973206e6f742073657400000000000000006000830152602082019050919050565b600061119b601f8361144f565b91507f45786163746c79203130206163636f756e74732061726520616c6c6f776564006000830152602082019050919050565b6111d7816115b3565b82525050565b60006020820190506111f26000830184610ed2565b92915050565b600060408201905061120d6000830185610ed2565b61121a60208301846111ce565b9392505050565b6000602082019050818103600083015261123b8184610ee1565b905092915050565b60006020820190506112586000830184610f3f565b92915050565b6000602082019050818103600083015261127781610f4e565b9050919050565b6000602082019050818103600083015261129781610f8e565b9050919050565b600060208201905081810360008301526112b781610fce565b9050919050565b600060208201905081810360008301526112d78161100e565b9050919050565b600060208201905081810360008301526112f78161104e565b9050919050565b600060208201905081810360008301526113178161108e565b9050919050565b60006020820190508181036000830152611337816110ce565b9050919050565b600060208201905081810360008301526113578161110e565b9050919050565b600060208201905081810360008301526113778161114e565b9050919050565b600060208201905081810360008301526113978161118e565b9050919050565b60006020820190506113b360008301846111ce565b92915050565b6000604051905081810181811067ffffffffffffffff821117156113e0576113df611664565b5b8060405250919050565b600067ffffffffffffffff82111561140557611404611664565b5b602082029050602081019050919050565b6000819050602082019050919050565b600081519050919050565b6000602082019050919050565b600082825260208201905092915050565b600082825260208201905092915050565b600061146b826115b3565b9150611476836115b3565b9250827fffffffffffffffffffffffffffffffffffffffffffffffffffffffffffffffff038211156114ab576114aa611606565b5b828201905092915050565b60006114c1826115b3565b91506114cc836115b3565b9250826114dc576114db611635565b5b828204905092915050565b60006114f2826115b3565b91506114fd836115b3565b9250817fffffffffffffffffffffffffffffffffffffffffffffffffffffffffffffffff048311821515161561153657611535611606565b5b828202905092915050565b600061154c826115b3565b9150611557836115b3565b92508282101561156a57611569611606565b5b828203905092915050565b600061158082611593565b9050919050565b60008115159050919050565b600073ffffffffffffffffffffffffffffffffffffffff82169050919050565b6000819050919050565b60006115c8826115b3565b91507fffffffffffffffffffffffffffffffffffffffffffffffffffffffffffffffff8214156115fb576115fa611606565b5b600182019050919050565b7f4e487b7100000000000000000000000000000000000000000000000000000000600052601160045260246000fd5b7f4e487b7100000000000000000000000000000000000000000000000000000000600052601260045260246000fd5b7f4e487b7100000000000000000000000000000000000000000000000000000000600052604160045260246000fd5b61169c81611575565b81146116a757600080fd5b50565b6116b381611587565b81146116be57600080fd5b50565b6116ca816115b3565b81146116d557600080fd5b5056fea2646970667358221220f5fd78d7e75d70ef888661c3ea311103334b8f439c75495b0632d6db33e70a8f64736f6c63430008000033",
  "immutableReferences": {},
  "source": "// SPDX-License-Identifier: MIT\npragma solidity ^0.8.0;\n\nimport \"@openzeppelin/contracts/token/ERC20/ERC20.sol\";\n\ncontract Vesting {\n    \n    address[] private accounts;\n    uint256 private startTime;\n    uint256 private lastPayout;\n    address private admin;\n    uint256 private payoutAmount;\n    address private tokenAddress;\n    uint private payout;\n\n    constructor() {\n        startTime = block.timestamp;\n        lastPayout = startTime;\n        admin = msg.sender;\n    }\n\n    // test helper functions\n    function getPayout() public view returns (uint256) {\n        return payout;\n    }\n    function getAccounts() public view returns (address[] memory) {\n        return accounts;\n    }\n    function getLastPayout() public view returns (uint256) {\n        return lastPayout;\n    }\n    function getAddresses() public view returns (address[] memory){\n        return accounts;\n    }\n    function getAmount() public view returns(uint){\n        uint time = block.timestamp - lastPayout;\n        uint amount = time/(1 minutes) * payout;\n        return amount;\n    }\n\n    function isAccountsSet() public view returns(bool){\n        return accounts.length == 10;\n    }\n\n    function setTokenAddress(address _tokenAddress) public onlyAdmin{\n        require(_tokenAddress != address(0),\"token address cannot be 0\");\n        require(tokenAddress == address(0),\"token address is already set\");\n        tokenAddress = _tokenAddress;\n        payout = ERC20(_tokenAddress).totalSupply() / 525600;\n    }\n\n    function addAddresses(address[] memory _accounts) public onlyAdmin {\n        require(_accounts.length == 10, \"Exactly 10 accounts are allowed\");\n        require(accounts.length == 0,\"Accounts already set\");\n        require(tokenAddress != address(0), \"Token Address is not set\");\n        for (uint256 i = 0; i < _accounts.length; i++) {\n            accounts.push(_accounts[i]);\n        }\n    }\n\n\n    function withdraw() public onlyAdmin {\n        require(accounts.length == 10, \"Accounts have not been set\");\n        uint256 time = block.timestamp - lastPayout;\n        require(time >= (1 minutes), \"Not enough time has passed\");\n\n        require(tokenAddress != address(0),\"No token address specified\");\n\n        ERC20 token = ERC20(tokenAddress);\n\n        require(token.balanceOf(address(this)) > 0, \"All payouts have been done\");\n        // calculate the number of payouts and amount\n        uint256 timeSlots = time / (1 minutes);\n        uint256 amount = timeSlots * payout;\n        if (amount > token.balanceOf(address(this))) {\n            amount = token.balanceOf(address(this));\n        }\n\n        // transfer amount/10 to every account\n        for (uint256 i = 0; i < accounts.length; i++) {\n            token.transfer(accounts[i], amount / 10);\n        }\n\n        // update the time of last payout\n        lastPayout = lastPayout + timeSlots * (1 minutes);\n    }\n\n    modifier onlyAdmin() {\n        require(msg.sender == admin, \"Only admin is allowed\");\n        _;\n    }\n}\n",
  "sourcePath": "C:\\Users\\priya\\OneDrive\\Desktop\\Projects\\xyz-token\\contracts\\Vesting.sol",
  "compiler": {
    "name": "solc",
    "version": "0.8.0+commit.c7dfd78e.Emscripten.clang"
  },
  "schemaVersion": "3.4.3",
  "updatedAt": "2022-01-06T11:27:25.937Z",
  "networkType": "ethereum",
  "devdoc": {
    "kind": "dev",
    "methods": {},
    "version": 1
  },
  "userdoc": {
    "kind": "user",
    "methods": {},
    "version": 1
  }
}