{
  "contractName": "Vesting",
  "abi": [
    {
      "inputs": [],
      "stateMutability": "nonpayable",
      "type": "constructor"
    },
    {
      "inputs": [],
      "name": "getPayout",
      "outputs": [
        {
          "internalType": "uint256",
          "name": "",
          "type": "uint256"
        }
      ],
      "stateMutability": "view",
      "type": "function",
      "constant": true
    },
    {
      "inputs": [],
      "name": "getAccounts",
      "outputs": [
        {
          "internalType": "address[]",
          "name": "",
          "type": "address[]"
        }
      ],
      "stateMutability": "view",
      "type": "function",
      "constant": true
    },
    {
      "inputs": [],
      "name": "getLastPayout",
      "outputs": [
        {
          "internalType": "uint256",
          "name": "",
          "type": "uint256"
        }
      ],
      "stateMutability": "view",
      "type": "function",
      "constant": true
    },
    {
      "inputs": [],
      "name": "getAddresses",
      "outputs": [
        {
          "internalType": "address[]",
          "name": "",
          "type": "address[]"
        }
      ],
      "stateMutability": "view",
      "type": "function",
      "constant": true
    },
    {
      "inputs": [],
      "name": "isAccountsSet",
      "outputs": [
        {
          "internalType": "bool",
          "name": "",
          "type": "bool"
        }
      ],
      "stateMutability": "view",
      "type": "function",
      "constant": true
    },
    {
      "inputs": [
        {
          "internalType": "address",
          "name": "_tokenAddress",
          "type": "address"
        }
      ],
      "name": "setTokenAddress",
      "outputs": [],
      "stateMutability": "nonpayable",
      "type": "function"
    },
    {
      "inputs": [
        {
          "internalType": "address[]",
          "name": "_accounts",
          "type": "address[]"
        }
      ],
      "name": "addAddresses",
      "outputs": [],
      "stateMutability": "nonpayable",
      "type": "function"
    },
    {
      "inputs": [],
      "name": "withdraw",
      "outputs": [],
      "stateMutability": "nonpayable",
      "type": "function"
    }
  ],
  "bytecode": "0x608060405234801561001057600080fd5b504260018190555060015460028190555033600360006101000a81548173ffffffffffffffffffffffffffffffffffffffff021916908373ffffffffffffffffffffffffffffffffffffffff1602179055506116ac806100716000396000f3fe608060405234801561001057600080fd5b50600436106100885760003560e01c80637d065c931161005b5780637d065c93146100ed5780638a48ac031461010b578063a39fac1214610129578063fff84a581461014757610088565b806308cfaa4a1461008d57806326a4e8d2146100ab5780633628731c146100c75780633ccfd60b146100e3575b600080fd5b610095610165565b6040516100a2919061133c565b60405180910390f35b6100c560048036038101906100c09190610d8d565b61016f565b005b6100e160048036038101906100dc9190610db6565b6103d6565b005b6100eb610649565b005b6100f5610b82565b604051610102919061133c565b60405180910390f35b610113610b8c565b60405161012091906111bf565b60405180910390f35b610131610c1a565b60405161013e91906111bf565b60405180910390f35b61014f610ca8565b60405161015c91906111e1565b60405180910390f35b6000600254905090565b600360009054906101000a900473ffffffffffffffffffffffffffffffffffffffff1673ffffffffffffffffffffffffffffffffffffffff163373ffffffffffffffffffffffffffffffffffffffff16146101ff576040517f08c379a00000000000000000000000000000000000000000000000000000000081526004016101f69061127c565b60405180910390fd5b600073ffffffffffffffffffffffffffffffffffffffff168173ffffffffffffffffffffffffffffffffffffffff16141561026f576040517f08c379a00000000000000000000000000000000000000000000000000000000081526004016102669061125c565b60405180910390fd5b600073ffffffffffffffffffffffffffffffffffffffff16600560009054906101000a900473ffffffffffffffffffffffffffffffffffffffff1673ffffffffffffffffffffffffffffffffffffffff1614610300576040517f08c379a00000000000000000000000000000000000000000000000000000000081526004016102f7906111fc565b60405180910390fd5b80600560006101000a81548173ffffffffffffffffffffffffffffffffffffffff021916908373ffffffffffffffffffffffffffffffffffffffff160217905550620805208173ffffffffffffffffffffffffffffffffffffffff166318160ddd6040518163ffffffff1660e01b815260040160206040518083038186803b15801561038b57600080fd5b505afa15801561039f573d6000803e3d6000fd5b505050506040513d601f19601f820116820180604052508101906103c39190610e20565b6103cd9190611454565b60068190555050565b600360009054906101000a900473ffffffffffffffffffffffffffffffffffffffff1673ffffffffffffffffffffffffffffffffffffffff163373ffffffffffffffffffffffffffffffffffffffff1614610466576040517f08c379a000000000000000000000000000000000000000000000000000000000815260040161045d9061127c565b60405180910390fd5b600a8151146104aa576040517f08c379a00000000000000000000000000000000000000000000000000000000081526004016104a19061131c565b60405180910390fd5b60008080549050146104f1576040517f08c379a00000000000000000000000000000000000000000000000000000000081526004016104e89061123c565b60405180910390fd5b600073ffffffffffffffffffffffffffffffffffffffff16600560009054906101000a900473ffffffffffffffffffffffffffffffffffffffff1673ffffffffffffffffffffffffffffffffffffffff161415610583576040517f08c379a000000000000000000000000000000000000000000000000000000000815260040161057a906112fc565b60405180910390fd5b60005b81518110156106455760008282815181106105ca577f4e487b7100000000000000000000000000000000000000000000000000000000600052603260045260246000fd5b60200260200101519080600181540180825580915050600190039060005260206000200160009091909190916101000a81548173ffffffffffffffffffffffffffffffffffffffff021916908373ffffffffffffffffffffffffffffffffffffffff160217905550808061063d9061155b565b915050610586565b5050565b600360009054906101000a900473ffffffffffffffffffffffffffffffffffffffff1673ffffffffffffffffffffffffffffffffffffffff163373ffffffffffffffffffffffffffffffffffffffff16146106d9576040517f08c379a00000000000000000000000000000000000000000000000000000000081526004016106d09061127c565b60405180910390fd5b600a60008054905014610721576040517f08c379a0000000000000000000000000000000000000000000000000000000008152600401610718906112dc565b60405180910390fd5b60006002544261073191906114df565b9050603c811015610777576040517f08c379a000000000000000000000000000000000000000000000000000000000815260040161076e9061129c565b60405180910390fd5b600073ffffffffffffffffffffffffffffffffffffffff16600560009054906101000a900473ffffffffffffffffffffffffffffffffffffffff1673ffffffffffffffffffffffffffffffffffffffff161415610809576040517f08c379a00000000000000000000000000000000000000000000000000000000081526004016108009061121c565b60405180910390fd5b6000600560009054906101000a900473ffffffffffffffffffffffffffffffffffffffff16905060008173ffffffffffffffffffffffffffffffffffffffff166370a08231306040518263ffffffff1660e01b815260040161086b919061117b565b60206040518083038186803b15801561088357600080fd5b505afa158015610897573d6000803e3d6000fd5b505050506040513d601f19601f820116820180604052508101906108bb9190610e20565b116108fb576040517f08c379a00000000000000000000000000000000000000000000000000000000081526004016108f2906112bc565b60405180910390fd5b6000603c8361090a9190611454565b905060006006548261091c9190611485565b90508273ffffffffffffffffffffffffffffffffffffffff166370a08231306040518263ffffffff1660e01b8152600401610957919061117b565b60206040518083038186803b15801561096f57600080fd5b505afa158015610983573d6000803e3d6000fd5b505050506040513d601f19601f820116820180604052508101906109a79190610e20565b811115610a3a578273ffffffffffffffffffffffffffffffffffffffff166370a08231306040518263ffffffff1660e01b81526004016109e7919061117b565b60206040518083038186803b1580156109ff57600080fd5b505afa158015610a13573d6000803e3d6000fd5b505050506040513d601f19601f82011682018060405250810190610a379190610e20565b90505b60005b600080549050811015610b5b578373ffffffffffffffffffffffffffffffffffffffff1663a9059cbb60008381548110610aa0577f4e487b7100000000000000000000000000000000000000000000000000000000600052603260045260246000fd5b9060005260206000200160009054906101000a900473ffffffffffffffffffffffffffffffffffffffff16600a85610ad89190611454565b6040518363ffffffff1660e01b8152600401610af5929190611196565b602060405180830381600087803b158015610b0f57600080fd5b505af1158015610b23573d6000803e3d6000fd5b505050506040513d601f19601f82011682018060405250810190610b479190610df7565b508080610b539061155b565b915050610a3d565b50603c84610b699190611485565b600254610b7691906113fe565b60028190555050505050565b6000600654905090565b60606000805480602002602001604051908101604052809291908181526020018280548015610c1057602002820191906000526020600020905b8160009054906101000a900473ffffffffffffffffffffffffffffffffffffffff1673ffffffffffffffffffffffffffffffffffffffff1681526020019060010190808311610bc6575b5050505050905090565b60606000805480602002602001604051908101604052809291908181526020018280548015610c9e57602002820191906000526020600020905b8160009054906101000a900473ffffffffffffffffffffffffffffffffffffffff1673ffffffffffffffffffffffffffffffffffffffff1681526020019060010190808311610c54575b5050505050905090565b6000600a60008054905014905090565b6000610ccb610cc684611388565b611357565b90508083825260208201905082856020860282011115610cea57600080fd5b60005b85811015610d1a5781610d008882610d24565b845260208401935060208301925050600181019050610ced565b5050509392505050565b600081359050610d3381611631565b92915050565b600082601f830112610d4a57600080fd5b8135610d5a848260208601610cb8565b91505092915050565b600081519050610d7281611648565b92915050565b600081519050610d878161165f565b92915050565b600060208284031215610d9f57600080fd5b6000610dad84828501610d24565b91505092915050565b600060208284031215610dc857600080fd5b600082013567ffffffffffffffff811115610de257600080fd5b610dee84828501610d39565b91505092915050565b600060208284031215610e0957600080fd5b6000610e1784828501610d63565b91505092915050565b600060208284031215610e3257600080fd5b6000610e4084828501610d78565b91505092915050565b6000610e558383610e61565b60208301905092915050565b610e6a81611513565b82525050565b610e7981611513565b82525050565b6000610e8a826113c4565b610e9481856113dc565b9350610e9f836113b4565b8060005b83811015610ed0578151610eb78882610e49565b9750610ec2836113cf565b925050600181019050610ea3565b5085935050505092915050565b610ee681611525565b82525050565b6000610ef9601c836113ed565b91507f746f6b656e206164647265737320697320616c726561647920736574000000006000830152602082019050919050565b6000610f39601a836113ed565b91507f4e6f20746f6b656e2061646472657373207370656369666965640000000000006000830152602082019050919050565b6000610f796014836113ed565b91507f4163636f756e747320616c7265616479207365740000000000000000000000006000830152602082019050919050565b6000610fb96019836113ed565b91507f746f6b656e20616464726573732063616e6e6f742062652030000000000000006000830152602082019050919050565b6000610ff96015836113ed565b91507f4f6e6c792061646d696e20697320616c6c6f77656400000000000000000000006000830152602082019050919050565b6000611039601a836113ed565b91507f4e6f7420656e6f7567682074696d6520686173207061737365640000000000006000830152602082019050919050565b6000611079601a836113ed565b91507f416c6c207061796f7574732068617665206265656e20646f6e650000000000006000830152602082019050919050565b60006110b9601a836113ed565b91507f4163636f756e74732068617665206e6f74206265656e207365740000000000006000830152602082019050919050565b60006110f96018836113ed565b91507f546f6b656e2041646472657373206973206e6f742073657400000000000000006000830152602082019050919050565b6000611139601f836113ed565b91507f45786163746c79203130206163636f756e74732061726520616c6c6f776564006000830152602082019050919050565b61117581611551565b82525050565b60006020820190506111906000830184610e70565b92915050565b60006040820190506111ab6000830185610e70565b6111b8602083018461116c565b9392505050565b600060208201905081810360008301526111d98184610e7f565b905092915050565b60006020820190506111f66000830184610edd565b92915050565b6000602082019050818103600083015261121581610eec565b9050919050565b6000602082019050818103600083015261123581610f2c565b9050919050565b6000602082019050818103600083015261125581610f6c565b9050919050565b6000602082019050818103600083015261127581610fac565b9050919050565b6000602082019050818103600083015261129581610fec565b9050919050565b600060208201905081810360008301526112b58161102c565b9050919050565b600060208201905081810360008301526112d58161106c565b9050919050565b600060208201905081810360008301526112f5816110ac565b9050919050565b60006020820190508181036000830152611315816110ec565b9050919050565b600060208201905081810360008301526113358161112c565b9050919050565b6000602082019050611351600083018461116c565b92915050565b6000604051905081810181811067ffffffffffffffff8211171561137e5761137d611602565b5b8060405250919050565b600067ffffffffffffffff8211156113a3576113a2611602565b5b602082029050602081019050919050565b6000819050602082019050919050565b600081519050919050565b6000602082019050919050565b600082825260208201905092915050565b600082825260208201905092915050565b600061140982611551565b915061141483611551565b9250827fffffffffffffffffffffffffffffffffffffffffffffffffffffffffffffffff03821115611449576114486115a4565b5b828201905092915050565b600061145f82611551565b915061146a83611551565b92508261147a576114796115d3565b5b828204905092915050565b600061149082611551565b915061149b83611551565b9250817fffffffffffffffffffffffffffffffffffffffffffffffffffffffffffffffff04831182151516156114d4576114d36115a4565b5b828202905092915050565b60006114ea82611551565b91506114f583611551565b925082821015611508576115076115a4565b5b828203905092915050565b600061151e82611531565b9050919050565b60008115159050919050565b600073ffffffffffffffffffffffffffffffffffffffff82169050919050565b6000819050919050565b600061156682611551565b91507fffffffffffffffffffffffffffffffffffffffffffffffffffffffffffffffff821415611599576115986115a4565b5b600182019050919050565b7f4e487b7100000000000000000000000000000000000000000000000000000000600052601160045260246000fd5b7f4e487b7100000000000000000000000000000000000000000000000000000000600052601260045260246000fd5b7f4e487b7100000000000000000000000000000000000000000000000000000000600052604160045260246000fd5b61163a81611513565b811461164557600080fd5b50565b61165181611525565b811461165c57600080fd5b50565b61166881611551565b811461167357600080fd5b5056fea264697066735822122052e52c229ec1b4b684306842321328cd79c766c84ef2b5108217d99fadfb924564736f6c63430008000033",
  "immutableReferences": {},
  "source": "// SPDX-License-Identifier: MIT\npragma solidity ^0.8.0;\n\nimport \"@openzeppelin/contracts/token/ERC20/ERC20.sol\";\n\ncontract Vesting {\n    \n    address[] private accounts;\n    uint256 private startTime;\n    uint256 private lastPayout;\n    address private admin;\n    uint256 private payoutAmount;\n    address private tokenAddress;\n    uint private payout;\n\n    constructor() {\n        startTime = block.timestamp;\n        lastPayout = startTime;\n        admin = msg.sender;\n    }\n\n    // test helper functions\n    function getPayout() public view returns (uint256) {\n        return payout;\n    }\n    function getAccounts() public view returns (address[] memory) {\n        return accounts;\n    }\n    function getLastPayout() public view returns (uint256) {\n        return lastPayout;\n    }\n    function getAddresses() public view returns (address[] memory){\n        return accounts;\n    }\n\n\n    function isAccountsSet() public view returns(bool){\n        return accounts.length == 10;\n    }\n\n    function setTokenAddress(address _tokenAddress) public onlyAdmin{\n        require(_tokenAddress != address(0),\"token address cannot be 0\");\n        require(tokenAddress == address(0),\"token address is already set\");\n        tokenAddress = _tokenAddress;\n        payout = ERC20(_tokenAddress).totalSupply() / 525600;\n    }\n\n    function addAddresses(address[] memory _accounts) public onlyAdmin {\n        require(_accounts.length == 10, \"Exactly 10 accounts are allowed\");\n        require(accounts.length == 0,\"Accounts already set\");\n        require(tokenAddress != address(0), \"Token Address is not set\");\n        for (uint256 i = 0; i < _accounts.length; i++) {\n            accounts.push(_accounts[i]);\n        }\n    }\n\n    function withdraw() public onlyAdmin {\n        require(accounts.length == 10, \"Accounts have not been set\");\n        uint256 time = block.timestamp - lastPayout;\n        require(time >= 60, \"Not enough time has passed\");\n\n        require(tokenAddress != address(0),\"No token address specified\");\n\n        ERC20 token = ERC20(tokenAddress);\n\n        require(token.balanceOf(address(this)) > 0, \"All payouts have been done\");\n        // calculate the number of payouts and amount\n        uint256 timeSlots = time / 60;\n        uint256 amount = timeSlots * payout;\n        if (amount > token.balanceOf(address(this))) {\n            amount = token.balanceOf(address(this));\n        }\n\n        // transfer amount/10 to every account\n        for (uint256 i = 0; i < accounts.length; i++) {\n            token.transfer(accounts[i], amount / 10);\n        }\n\n        // update the time of last payout\n        lastPayout = lastPayout + time * 60;\n    }\n\n    modifier onlyAdmin() {\n        require(msg.sender == admin, \"Only admin is allowed\");\n        _;\n    }\n}\n",
  "sourcePath": "C:\\Users\\priya\\OneDrive\\Desktop\\Projects\\xyz-token\\contracts\\Vesting.sol",
  "compiler": {
    "name": "solc",
    "version": "0.8.0+commit.c7dfd78e.Emscripten.clang"
  },
  "schemaVersion": "3.4.3",
  "updatedAt": "2022-01-06T10:52:53.372Z",
  "networkType": "ethereum",
  "devdoc": {
    "kind": "dev",
    "methods": {},
    "version": 1
  },
  "userdoc": {
    "kind": "user",
    "methods": {},
    "version": 1
  }
}