{
  "contractName": "Vesting",
  "abi": [
    {
      "inputs": [],
      "stateMutability": "nonpayable",
      "type": "constructor"
    },
    {
      "inputs": [],
      "name": "getPayout",
      "outputs": [
        {
          "internalType": "uint256",
          "name": "",
          "type": "uint256"
        }
      ],
      "stateMutability": "view",
      "type": "function",
      "constant": true
    },
    {
      "inputs": [],
      "name": "getAccounts",
      "outputs": [
        {
          "internalType": "address[]",
          "name": "",
          "type": "address[]"
        }
      ],
      "stateMutability": "view",
      "type": "function",
      "constant": true
    },
    {
      "inputs": [],
      "name": "getLastPayout",
      "outputs": [
        {
          "internalType": "uint256",
          "name": "",
          "type": "uint256"
        }
      ],
      "stateMutability": "view",
      "type": "function",
      "constant": true
    },
    {
      "inputs": [],
      "name": "getAddresses",
      "outputs": [
        {
          "internalType": "address[]",
          "name": "",
          "type": "address[]"
        }
      ],
      "stateMutability": "view",
      "type": "function",
      "constant": true
    },
    {
      "inputs": [],
      "name": "isAccountsSet",
      "outputs": [
        {
          "internalType": "bool",
          "name": "",
          "type": "bool"
        }
      ],
      "stateMutability": "view",
      "type": "function",
      "constant": true
    },
    {
      "inputs": [
        {
          "internalType": "address",
          "name": "_tokenAddress",
          "type": "address"
        }
      ],
      "name": "setTokenAddress",
      "outputs": [],
      "stateMutability": "nonpayable",
      "type": "function"
    },
    {
      "inputs": [
        {
          "internalType": "address[]",
          "name": "_accounts",
          "type": "address[]"
        }
      ],
      "name": "addAddresses",
      "outputs": [],
      "stateMutability": "nonpayable",
      "type": "function"
    },
    {
      "inputs": [],
      "name": "withdraw",
      "outputs": [],
      "stateMutability": "nonpayable",
      "type": "function"
    }
  ],
  "bytecode": "0x608060405234801561001057600080fd5b504260018190555060015460028190555033600360006101000a81548173ffffffffffffffffffffffffffffffffffffffff021916908373ffffffffffffffffffffffffffffffffffffffff1602179055506115ba806100716000396000f3fe608060405234801561001057600080fd5b50600436106100885760003560e01c80637d065c931161005b5780637d065c93146100ed5780638a48ac031461010b578063a39fac1214610129578063fff84a581461014757610088565b806308cfaa4a1461008d57806326a4e8d2146100ab5780633628731c146100c75780633ccfd60b146100e3575b600080fd5b610095610165565b6040516100a2919061124a565b60405180910390f35b6100c560048036038101906100c09190610cfb565b61016f565b005b6100e160048036038101906100dc9190610d24565b6103d6565b005b6100eb6105b7565b005b6100f5610af0565b604051610102919061124a565b60405180910390f35b610113610afa565b60405161012091906110ed565b60405180910390f35b610131610b88565b60405161013e91906110ed565b60405180910390f35b61014f610c16565b60405161015c919061110f565b60405180910390f35b6000600254905090565b600360009054906101000a900473ffffffffffffffffffffffffffffffffffffffff1673ffffffffffffffffffffffffffffffffffffffff163373ffffffffffffffffffffffffffffffffffffffff16146101ff576040517f08c379a00000000000000000000000000000000000000000000000000000000081526004016101f6906111aa565b60405180910390fd5b600073ffffffffffffffffffffffffffffffffffffffff168173ffffffffffffffffffffffffffffffffffffffff16141561026f576040517f08c379a00000000000000000000000000000000000000000000000000000000081526004016102669061118a565b60405180910390fd5b600073ffffffffffffffffffffffffffffffffffffffff16600560009054906101000a900473ffffffffffffffffffffffffffffffffffffffff1673ffffffffffffffffffffffffffffffffffffffff1614610300576040517f08c379a00000000000000000000000000000000000000000000000000000000081526004016102f79061112a565b60405180910390fd5b80600560006101000a81548173ffffffffffffffffffffffffffffffffffffffff021916908373ffffffffffffffffffffffffffffffffffffffff160217905550620805208173ffffffffffffffffffffffffffffffffffffffff166318160ddd6040518163ffffffff1660e01b815260040160206040518083038186803b15801561038b57600080fd5b505afa15801561039f573d6000803e3d6000fd5b505050506040513d601f19601f820116820180604052508101906103c39190610d8e565b6103cd9190611362565b60068190555050565b600360009054906101000a900473ffffffffffffffffffffffffffffffffffffffff1673ffffffffffffffffffffffffffffffffffffffff163373ffffffffffffffffffffffffffffffffffffffff1614610466576040517f08c379a000000000000000000000000000000000000000000000000000000000815260040161045d906111aa565b60405180910390fd5b600a8151146104aa576040517f08c379a00000000000000000000000000000000000000000000000000000000081526004016104a19061122a565b60405180910390fd5b60008080549050146104f1576040517f08c379a00000000000000000000000000000000000000000000000000000000081526004016104e89061116a565b60405180910390fd5b60005b81518110156105b3576000828281518110610538577f4e487b7100000000000000000000000000000000000000000000000000000000600052603260045260246000fd5b60200260200101519080600181540180825580915050600190039060005260206000200160009091909190916101000a81548173ffffffffffffffffffffffffffffffffffffffff021916908373ffffffffffffffffffffffffffffffffffffffff16021790555080806105ab90611469565b9150506104f4565b5050565b600360009054906101000a900473ffffffffffffffffffffffffffffffffffffffff1673ffffffffffffffffffffffffffffffffffffffff163373ffffffffffffffffffffffffffffffffffffffff1614610647576040517f08c379a000000000000000000000000000000000000000000000000000000000815260040161063e906111aa565b60405180910390fd5b600a6000805490501461068f576040517f08c379a00000000000000000000000000000000000000000000000000000000081526004016106869061120a565b60405180910390fd5b60006002544261069f91906113ed565b9050603c8110156106e5576040517f08c379a00000000000000000000000000000000000000000000000000000000081526004016106dc906111ca565b60405180910390fd5b600073ffffffffffffffffffffffffffffffffffffffff16600560009054906101000a900473ffffffffffffffffffffffffffffffffffffffff1673ffffffffffffffffffffffffffffffffffffffff161415610777576040517f08c379a000000000000000000000000000000000000000000000000000000000815260040161076e9061114a565b60405180910390fd5b6000600560009054906101000a900473ffffffffffffffffffffffffffffffffffffffff16905060008173ffffffffffffffffffffffffffffffffffffffff166370a08231306040518263ffffffff1660e01b81526004016107d991906110a9565b60206040518083038186803b1580156107f157600080fd5b505afa158015610805573d6000803e3d6000fd5b505050506040513d601f19601f820116820180604052508101906108299190610d8e565b11610869576040517f08c379a0000000000000000000000000000000000000000000000000000000008152600401610860906111ea565b60405180910390fd5b6000603c836108789190611362565b905060006006548261088a9190611393565b90508273ffffffffffffffffffffffffffffffffffffffff166370a08231306040518263ffffffff1660e01b81526004016108c591906110a9565b60206040518083038186803b1580156108dd57600080fd5b505afa1580156108f1573d6000803e3d6000fd5b505050506040513d601f19601f820116820180604052508101906109159190610d8e565b8111156109a8578273ffffffffffffffffffffffffffffffffffffffff166370a08231306040518263ffffffff1660e01b815260040161095591906110a9565b60206040518083038186803b15801561096d57600080fd5b505afa158015610981573d6000803e3d6000fd5b505050506040513d601f19601f820116820180604052508101906109a59190610d8e565b90505b60005b600080549050811015610ac9578373ffffffffffffffffffffffffffffffffffffffff1663a9059cbb60008381548110610a0e577f4e487b7100000000000000000000000000000000000000000000000000000000600052603260045260246000fd5b9060005260206000200160009054906101000a900473ffffffffffffffffffffffffffffffffffffffff16600a85610a469190611362565b6040518363ffffffff1660e01b8152600401610a639291906110c4565b602060405180830381600087803b158015610a7d57600080fd5b505af1158015610a91573d6000803e3d6000fd5b505050506040513d601f19601f82011682018060405250810190610ab59190610d65565b508080610ac190611469565b9150506109ab565b50603c84610ad79190611393565b600254610ae4919061130c565b60028190555050505050565b6000600654905090565b60606000805480602002602001604051908101604052809291908181526020018280548015610b7e57602002820191906000526020600020905b8160009054906101000a900473ffffffffffffffffffffffffffffffffffffffff1673ffffffffffffffffffffffffffffffffffffffff1681526020019060010190808311610b34575b5050505050905090565b60606000805480602002602001604051908101604052809291908181526020018280548015610c0c57602002820191906000526020600020905b8160009054906101000a900473ffffffffffffffffffffffffffffffffffffffff1673ffffffffffffffffffffffffffffffffffffffff1681526020019060010190808311610bc2575b5050505050905090565b6000600a60008054905014905090565b6000610c39610c3484611296565b611265565b90508083825260208201905082856020860282011115610c5857600080fd5b60005b85811015610c885781610c6e8882610c92565b845260208401935060208301925050600181019050610c5b565b5050509392505050565b600081359050610ca18161153f565b92915050565b600082601f830112610cb857600080fd5b8135610cc8848260208601610c26565b91505092915050565b600081519050610ce081611556565b92915050565b600081519050610cf58161156d565b92915050565b600060208284031215610d0d57600080fd5b6000610d1b84828501610c92565b91505092915050565b600060208284031215610d3657600080fd5b600082013567ffffffffffffffff811115610d5057600080fd5b610d5c84828501610ca7565b91505092915050565b600060208284031215610d7757600080fd5b6000610d8584828501610cd1565b91505092915050565b600060208284031215610da057600080fd5b6000610dae84828501610ce6565b91505092915050565b6000610dc38383610dcf565b60208301905092915050565b610dd881611421565b82525050565b610de781611421565b82525050565b6000610df8826112d2565b610e0281856112ea565b9350610e0d836112c2565b8060005b83811015610e3e578151610e258882610db7565b9750610e30836112dd565b925050600181019050610e11565b5085935050505092915050565b610e5481611433565b82525050565b6000610e67601c836112fb565b91507f746f6b656e206164647265737320697320616c726561647920736574000000006000830152602082019050919050565b6000610ea7601a836112fb565b91507f4e6f20746f6b656e2061646472657373207370656369666965640000000000006000830152602082019050919050565b6000610ee76014836112fb565b91507f4163636f756e747320616c7265616479207365740000000000000000000000006000830152602082019050919050565b6000610f276019836112fb565b91507f746f6b656e20616464726573732063616e6e6f742062652030000000000000006000830152602082019050919050565b6000610f676015836112fb565b91507f4f6e6c792061646d696e20697320616c6c6f77656400000000000000000000006000830152602082019050919050565b6000610fa7601a836112fb565b91507f4e6f7420656e6f7567682074696d6520686173207061737365640000000000006000830152602082019050919050565b6000610fe7601a836112fb565b91507f416c6c207061796f7574732068617665206265656e20646f6e650000000000006000830152602082019050919050565b6000611027601a836112fb565b91507f4163636f756e74732068617665206e6f74206265656e207365740000000000006000830152602082019050919050565b6000611067601f836112fb565b91507f45786163746c79203130206163636f756e74732061726520616c6c6f776564006000830152602082019050919050565b6110a38161145f565b82525050565b60006020820190506110be6000830184610dde565b92915050565b60006040820190506110d96000830185610dde565b6110e6602083018461109a565b9392505050565b600060208201905081810360008301526111078184610ded565b905092915050565b60006020820190506111246000830184610e4b565b92915050565b6000602082019050818103600083015261114381610e5a565b9050919050565b6000602082019050818103600083015261116381610e9a565b9050919050565b6000602082019050818103600083015261118381610eda565b9050919050565b600060208201905081810360008301526111a381610f1a565b9050919050565b600060208201905081810360008301526111c381610f5a565b9050919050565b600060208201905081810360008301526111e381610f9a565b9050919050565b6000602082019050818103600083015261120381610fda565b9050919050565b600060208201905081810360008301526112238161101a565b9050919050565b600060208201905081810360008301526112438161105a565b9050919050565b600060208201905061125f600083018461109a565b92915050565b6000604051905081810181811067ffffffffffffffff8211171561128c5761128b611510565b5b8060405250919050565b600067ffffffffffffffff8211156112b1576112b0611510565b5b602082029050602081019050919050565b6000819050602082019050919050565b600081519050919050565b6000602082019050919050565b600082825260208201905092915050565b600082825260208201905092915050565b60006113178261145f565b91506113228361145f565b9250827fffffffffffffffffffffffffffffffffffffffffffffffffffffffffffffffff03821115611357576113566114b2565b5b828201905092915050565b600061136d8261145f565b91506113788361145f565b925082611388576113876114e1565b5b828204905092915050565b600061139e8261145f565b91506113a98361145f565b9250817fffffffffffffffffffffffffffffffffffffffffffffffffffffffffffffffff04831182151516156113e2576113e16114b2565b5b828202905092915050565b60006113f88261145f565b91506114038361145f565b925082821015611416576114156114b2565b5b828203905092915050565b600061142c8261143f565b9050919050565b60008115159050919050565b600073ffffffffffffffffffffffffffffffffffffffff82169050919050565b6000819050919050565b60006114748261145f565b91507fffffffffffffffffffffffffffffffffffffffffffffffffffffffffffffffff8214156114a7576114a66114b2565b5b600182019050919050565b7f4e487b7100000000000000000000000000000000000000000000000000000000600052601160045260246000fd5b7f4e487b7100000000000000000000000000000000000000000000000000000000600052601260045260246000fd5b7f4e487b7100000000000000000000000000000000000000000000000000000000600052604160045260246000fd5b61154881611421565b811461155357600080fd5b50565b61155f81611433565b811461156a57600080fd5b50565b6115768161145f565b811461158157600080fd5b5056fea26469706673582212208204f9b3b3d0d08e70285e5a418691dc9b56e30fc572fcd747c74344c9a405e964736f6c63430008000033",
  "immutableReferences": {},
  "source": "// SPDX-License-Identifier: MIT\npragma solidity ^0.8.0;\n\nimport \"@openzeppelin/contracts/token/ERC20/ERC20.sol\";\n\ncontract Vesting {\n    \n    address[] private accounts;\n    uint256 private startTime;\n    uint256 private lastPayout;\n    address private admin;\n    uint256 private payoutAmount;\n    address private tokenAddress;\n    uint private payout;\n\n    constructor() {\n        startTime = block.timestamp;\n        lastPayout = startTime;\n        admin = msg.sender;\n    }\n\n    // test helper functions\n    function getPayout() public view returns (uint256) {\n        return payout;\n    }\n    function getAccounts() public view returns (address[] memory) {\n        return accounts;\n    }\n    function getLastPayout() public view returns (uint256) {\n        return lastPayout;\n    }\n    function getAddresses() public view returns (address[] memory){\n        return accounts;\n    }\n\n\n    function isAccountsSet() public view returns(bool){\n        return accounts.length == 10;\n    }\n\n    function setTokenAddress(address _tokenAddress) public onlyAdmin{\n        require(_tokenAddress != address(0),\"token address cannot be 0\");\n        require(tokenAddress == address(0),\"token address is already set\");\n        tokenAddress = _tokenAddress;\n        payout = ERC20(_tokenAddress).totalSupply() / 525600;\n    }\n\n    function addAddresses(address[] memory _accounts) public onlyAdmin {\n        require(_accounts.length == 10, \"Exactly 10 accounts are allowed\");\n        require(accounts.length == 0,\"Accounts already set\");\n        for (uint256 i = 0; i < _accounts.length; i++) {\n            accounts.push(_accounts[i]);\n        }\n    }\n\n    function withdraw() public onlyAdmin {\n        require(accounts.length == 10, \"Accounts have not been set\");\n        uint256 time = block.timestamp - lastPayout;\n        require(time >= 60, \"Not enough time has passed\");\n\n        require(tokenAddress != address(0),\"No token address specified\");\n\n        ERC20 token = ERC20(tokenAddress);\n\n        require(token.balanceOf(address(this)) > 0, \"All payouts have been done\");\n        // calculate the number of payouts and amount\n        uint256 timeSlots = time / 60;\n        uint256 amount = timeSlots * payout;\n        if (amount > token.balanceOf(address(this))) {\n            amount = token.balanceOf(address(this));\n        }\n\n        // transfer amount/10 to every account\n        for (uint256 i = 0; i < accounts.length; i++) {\n            token.transfer(accounts[i], amount / 10);\n        }\n\n        // update the time of last payout\n        lastPayout = lastPayout + time * 60;\n    }\n\n    modifier onlyAdmin() {\n        require(msg.sender == admin, \"Only admin is allowed\");\n        _;\n    }\n}\n",
  "sourcePath": "C:\\Users\\priya\\OneDrive\\Desktop\\Projects\\xyz-token\\contracts\\Vesting.sol",
  "compiler": {
    "name": "solc",
    "version": "0.8.0+commit.c7dfd78e.Emscripten.clang"
  },
  "schemaVersion": "3.4.3",
  "updatedAt": "2022-01-06T09:52:04.567Z",
  "networkType": "ethereum",
  "devdoc": {
    "kind": "dev",
    "methods": {},
    "version": 1
  },
  "userdoc": {
    "kind": "user",
    "methods": {},
    "version": 1
  }
}