{
  "contractName": "Vesting",
  "abi": [
    {
      "inputs": [],
      "stateMutability": "nonpayable",
      "type": "constructor"
    },
    {
      "inputs": [],
      "name": "getPayout",
      "outputs": [
        {
          "internalType": "uint256",
          "name": "",
          "type": "uint256"
        }
      ],
      "stateMutability": "view",
      "type": "function"
    },
    {
      "inputs": [],
      "name": "getAccounts",
      "outputs": [
        {
          "internalType": "address[]",
          "name": "",
          "type": "address[]"
        }
      ],
      "stateMutability": "view",
      "type": "function"
    },
    {
      "inputs": [],
      "name": "getLastPayout",
      "outputs": [
        {
          "internalType": "uint256",
          "name": "",
          "type": "uint256"
        }
      ],
      "stateMutability": "view",
      "type": "function"
    },
    {
      "inputs": [
        {
          "internalType": "address",
          "name": "_tokenAddress",
          "type": "address"
        }
      ],
      "name": "setTokenAddress",
      "outputs": [],
      "stateMutability": "nonpayable",
      "type": "function"
    },
    {
      "inputs": [
        {
          "internalType": "address[]",
          "name": "_accounts",
          "type": "address[]"
        }
      ],
      "name": "addAddresses",
      "outputs": [],
      "stateMutability": "nonpayable",
      "type": "function"
    },
    {
      "inputs": [],
      "name": "withdraw",
      "outputs": [],
      "stateMutability": "nonpayable",
      "type": "function"
    }
  ],
  "bytecode": "0x608060405234801561001057600080fd5b504260018190555060015460028190555033600360006101000a81548173ffffffffffffffffffffffffffffffffffffffff021916908373ffffffffffffffffffffffffffffffffffffffff160217905550611228806100716000396000f3fe608060405234801561001057600080fd5b50600436106100625760003560e01c806308cfaa4a1461006757806326a4e8d2146100855780633628731c146100a15780633ccfd60b146100bd5780637d065c93146100c75780638a48ac03146100e5575b600080fd5b61006f610103565b60405161007c9190610eb8565b60405180910390f35b61009f600480360381019061009a9190610ab3565b61010d565b005b6100bb60048036038101906100b69190610adc565b610273565b005b6100c561040d565b005b6100cf610946565b6040516100dc9190610eb8565b60405180910390f35b6100ed610950565b6040516100fa9190610dd6565b60405180910390f35b6000600254905090565b600360009054906101000a900473ffffffffffffffffffffffffffffffffffffffff1673ffffffffffffffffffffffffffffffffffffffff163373ffffffffffffffffffffffffffffffffffffffff161461019d576040517f08c379a000000000000000000000000000000000000000000000000000000000815260040161019490610e18565b60405180910390fd5b80600560006101000a81548173ffffffffffffffffffffffffffffffffffffffff021916908373ffffffffffffffffffffffffffffffffffffffff160217905550620805208173ffffffffffffffffffffffffffffffffffffffff166318160ddd6040518163ffffffff1660e01b815260040160206040518083038186803b15801561022857600080fd5b505afa15801561023c573d6000803e3d6000fd5b505050506040513d601f19601f820116820180604052508101906102609190610b46565b61026a9190610fd0565b60068190555050565b600360009054906101000a900473ffffffffffffffffffffffffffffffffffffffff1673ffffffffffffffffffffffffffffffffffffffff163373ffffffffffffffffffffffffffffffffffffffff1614610303576040517f08c379a00000000000000000000000000000000000000000000000000000000081526004016102fa90610e18565b60405180910390fd5b600a815114610347576040517f08c379a000000000000000000000000000000000000000000000000000000000815260040161033e90610e98565b60405180910390fd5b60005b815181101561040957600082828151811061038e577f4e487b7100000000000000000000000000000000000000000000000000000000600052603260045260246000fd5b60200260200101519080600181540180825580915050600190039060005260206000200160009091909190916101000a81548173ffffffffffffffffffffffffffffffffffffffff021916908373ffffffffffffffffffffffffffffffffffffffff1602179055508080610401906110d7565b91505061034a565b5050565b600360009054906101000a900473ffffffffffffffffffffffffffffffffffffffff1673ffffffffffffffffffffffffffffffffffffffff163373ffffffffffffffffffffffffffffffffffffffff161461049d576040517f08c379a000000000000000000000000000000000000000000000000000000000815260040161049490610e18565b60405180910390fd5b600a600080549050146104e5576040517f08c379a00000000000000000000000000000000000000000000000000000000081526004016104dc90610e78565b60405180910390fd5b6000600254426104f5919061105b565b9050603c81101561053b576040517f08c379a000000000000000000000000000000000000000000000000000000000815260040161053290610e38565b60405180910390fd5b600073ffffffffffffffffffffffffffffffffffffffff16600560009054906101000a900473ffffffffffffffffffffffffffffffffffffffff1673ffffffffffffffffffffffffffffffffffffffff1614156105cd576040517f08c379a00000000000000000000000000000000000000000000000000000000081526004016105c490610df8565b60405180910390fd5b6000600560009054906101000a900473ffffffffffffffffffffffffffffffffffffffff16905060008173ffffffffffffffffffffffffffffffffffffffff166370a08231306040518263ffffffff1660e01b815260040161062f9190610d92565b60206040518083038186803b15801561064757600080fd5b505afa15801561065b573d6000803e3d6000fd5b505050506040513d601f19601f8201168201806040525081019061067f9190610b46565b116106bf576040517f08c379a00000000000000000000000000000000000000000000000000000000081526004016106b690610e58565b60405180910390fd5b6000603c836106ce9190610fd0565b90506000600654826106e09190611001565b90508273ffffffffffffffffffffffffffffffffffffffff166370a08231306040518263ffffffff1660e01b815260040161071b9190610d92565b60206040518083038186803b15801561073357600080fd5b505afa158015610747573d6000803e3d6000fd5b505050506040513d601f19601f8201168201806040525081019061076b9190610b46565b8111156107fe578273ffffffffffffffffffffffffffffffffffffffff166370a08231306040518263ffffffff1660e01b81526004016107ab9190610d92565b60206040518083038186803b1580156107c357600080fd5b505afa1580156107d7573d6000803e3d6000fd5b505050506040513d601f19601f820116820180604052508101906107fb9190610b46565b90505b60005b60008054905081101561091f578373ffffffffffffffffffffffffffffffffffffffff1663a9059cbb60008381548110610864577f4e487b7100000000000000000000000000000000000000000000000000000000600052603260045260246000fd5b9060005260206000200160009054906101000a900473ffffffffffffffffffffffffffffffffffffffff16600a8561089c9190610fd0565b6040518363ffffffff1660e01b81526004016108b9929190610dad565b602060405180830381600087803b1580156108d357600080fd5b505af11580156108e7573d6000803e3d6000fd5b505050506040513d601f19601f8201168201806040525081019061090b9190610b1d565b508080610917906110d7565b915050610801565b50603c8461092d9190611001565b60025461093a9190610f7a565b60028190555050505050565b6000600654905090565b606060008054806020026020016040519081016040528092919081815260200182805480156109d457602002820191906000526020600020905b8160009054906101000a900473ffffffffffffffffffffffffffffffffffffffff1673ffffffffffffffffffffffffffffffffffffffff168152602001906001019080831161098a575b5050505050905090565b60006109f16109ec84610f04565b610ed3565b90508083825260208201905082856020860282011115610a1057600080fd5b60005b85811015610a405781610a268882610a4a565b845260208401935060208301925050600181019050610a13565b5050509392505050565b600081359050610a59816111ad565b92915050565b600082601f830112610a7057600080fd5b8135610a808482602086016109de565b91505092915050565b600081519050610a98816111c4565b92915050565b600081519050610aad816111db565b92915050565b600060208284031215610ac557600080fd5b6000610ad384828501610a4a565b91505092915050565b600060208284031215610aee57600080fd5b600082013567ffffffffffffffff811115610b0857600080fd5b610b1484828501610a5f565b91505092915050565b600060208284031215610b2f57600080fd5b6000610b3d84828501610a89565b91505092915050565b600060208284031215610b5857600080fd5b6000610b6684828501610a9e565b91505092915050565b6000610b7b8383610b87565b60208301905092915050565b610b908161108f565b82525050565b610b9f8161108f565b82525050565b6000610bb082610f40565b610bba8185610f58565b9350610bc583610f30565b8060005b83811015610bf6578151610bdd8882610b6f565b9750610be883610f4b565b925050600181019050610bc9565b5085935050505092915050565b6000610c10601a83610f69565b91507f4e6f20746f6b656e2061646472657373207370656369666965640000000000006000830152602082019050919050565b6000610c50601583610f69565b91507f4f6e6c792061646d696e20697320616c6c6f77656400000000000000000000006000830152602082019050919050565b6000610c90601a83610f69565b91507f4e6f7420656e6f7567682074696d6520686173207061737365640000000000006000830152602082019050919050565b6000610cd0601a83610f69565b91507f416c6c207061796f7574732068617665206265656e20646f6e650000000000006000830152602082019050919050565b6000610d10601a83610f69565b91507f4163636f756e74732068617665206e6f74206265656e207365740000000000006000830152602082019050919050565b6000610d50601f83610f69565b91507f45786163746c79203130206163636f756e74732061726520616c6c6f776564006000830152602082019050919050565b610d8c816110cd565b82525050565b6000602082019050610da76000830184610b96565b92915050565b6000604082019050610dc26000830185610b96565b610dcf6020830184610d83565b9392505050565b60006020820190508181036000830152610df08184610ba5565b905092915050565b60006020820190508181036000830152610e1181610c03565b9050919050565b60006020820190508181036000830152610e3181610c43565b9050919050565b60006020820190508181036000830152610e5181610c83565b9050919050565b60006020820190508181036000830152610e7181610cc3565b9050919050565b60006020820190508181036000830152610e9181610d03565b9050919050565b60006020820190508181036000830152610eb181610d43565b9050919050565b6000602082019050610ecd6000830184610d83565b92915050565b6000604051905081810181811067ffffffffffffffff82111715610efa57610ef961117e565b5b8060405250919050565b600067ffffffffffffffff821115610f1f57610f1e61117e565b5b602082029050602081019050919050565b6000819050602082019050919050565b600081519050919050565b6000602082019050919050565b600082825260208201905092915050565b600082825260208201905092915050565b6000610f85826110cd565b9150610f90836110cd565b9250827fffffffffffffffffffffffffffffffffffffffffffffffffffffffffffffffff03821115610fc557610fc4611120565b5b828201905092915050565b6000610fdb826110cd565b9150610fe6836110cd565b925082610ff657610ff561114f565b5b828204905092915050565b600061100c826110cd565b9150611017836110cd565b9250817fffffffffffffffffffffffffffffffffffffffffffffffffffffffffffffffff04831182151516156110505761104f611120565b5b828202905092915050565b6000611066826110cd565b9150611071836110cd565b92508282101561108457611083611120565b5b828203905092915050565b600061109a826110ad565b9050919050565b60008115159050919050565b600073ffffffffffffffffffffffffffffffffffffffff82169050919050565b6000819050919050565b60006110e2826110cd565b91507fffffffffffffffffffffffffffffffffffffffffffffffffffffffffffffffff82141561111557611114611120565b5b600182019050919050565b7f4e487b7100000000000000000000000000000000000000000000000000000000600052601160045260246000fd5b7f4e487b7100000000000000000000000000000000000000000000000000000000600052601260045260246000fd5b7f4e487b7100000000000000000000000000000000000000000000000000000000600052604160045260246000fd5b6111b68161108f565b81146111c157600080fd5b50565b6111cd816110a1565b81146111d857600080fd5b50565b6111e4816110cd565b81146111ef57600080fd5b5056fea26469706673582212200f4eeb991b163fc87bbcb4d13ab4eeff9d38ed452a7447db8737debd69a90e9464736f6c63430008000033",
  "immutableReferences": {},
  "source": "// SPDX-License-Identifier: MIT\npragma solidity ^0.8.0;\n\nimport \"@openzeppelin/contracts/token/ERC20/ERC20.sol\";\n\ncontract Vesting {\n    \n    address[] private accounts;\n    uint256 private startTime;\n    uint256 private lastPayout;\n    address private admin;\n    uint256 private payoutAmount;\n    address private tokenAddress;\n    uint private payout;\n\n    constructor() {\n        startTime = block.timestamp;\n        lastPayout = startTime;\n        admin = msg.sender;\n    }\n\n    // test helper functions\n    function getPayout() public view returns (uint256) {\n        return payout;\n    }\n    function getAccounts() public view returns (address[] memory) {\n        return accounts;\n    }\n    function getLastPayout() public view returns (uint256) {\n        return lastPayout;\n    }\n    \n    function setTokenAddress(address _tokenAddress) public onlyAdmin{\n      tokenAddress = _tokenAddress;\n      payout = ERC20(_tokenAddress).totalSupply() / 525600;\n    }\n\n    function addAddresses(address[] memory _accounts) public onlyAdmin {\n        require(_accounts.length == 10, \"Exactly 10 accounts are allowed\");\n        for (uint256 i = 0; i < _accounts.length; i++) {\n            accounts.push(_accounts[i]);\n        }\n    }\n\n    function withdraw() public onlyAdmin {\n        require(accounts.length == 10, \"Accounts have not been set\");\n        uint256 time = block.timestamp - lastPayout;\n        require(time >= 60, \"Not enough time has passed\");\n\n        require(tokenAddress != address(0),\"No token address specified\");\n\n        ERC20 token = ERC20(tokenAddress);\n\n        require(token.balanceOf(address(this)) > 0, \"All payouts have been done\");\n        // calculate the number of payouts and amount\n        uint256 timeSlots = time / 60;\n        uint256 amount = timeSlots * payout;\n        if (amount > token.balanceOf(address(this))) {\n            amount = token.balanceOf(address(this));\n        }\n\n        // transfer amount/10 to every account\n        for (uint256 i = 0; i < accounts.length; i++) {\n            token.transfer(accounts[i], amount / 10);\n        }\n\n        // update the time of last payout\n        lastPayout = lastPayout + time * 60;\n    }\n\n    modifier onlyAdmin() {\n        require(msg.sender == admin, \"Only admin is allowed\");\n        _;\n    }\n}\n",
  "sourcePath": "C:\\Users\\priya\\OneDrive\\Desktop\\Projects\\xyz-token\\contracts\\Vesting.sol",
  "compiler": {
    "name": "solc",
    "version": "0.8.0+commit.c7dfd78e.Emscripten.clang"
  },
  "schemaVersion": "3.4.3",
  "updatedAt": "2022-01-06T08:36:47.160Z",
  "devdoc": {
    "kind": "dev",
    "methods": {},
    "version": 1
  },
  "userdoc": {
    "kind": "user",
    "methods": {},
    "version": 1
  }
}