{
  "contractName": "Vesting",
  "abi": [
    {
      "inputs": [],
      "stateMutability": "nonpayable",
      "type": "constructor"
    },
    {
      "inputs": [],
      "name": "getPayout",
      "outputs": [
        {
          "internalType": "uint256",
          "name": "",
          "type": "uint256"
        }
      ],
      "stateMutability": "view",
      "type": "function"
    },
    {
      "inputs": [],
      "name": "getAccounts",
      "outputs": [
        {
          "internalType": "address[]",
          "name": "",
          "type": "address[]"
        }
      ],
      "stateMutability": "view",
      "type": "function"
    },
    {
      "inputs": [],
      "name": "getLastPayout",
      "outputs": [
        {
          "internalType": "uint256",
          "name": "",
          "type": "uint256"
        }
      ],
      "stateMutability": "view",
      "type": "function"
    },
    {
      "inputs": [],
      "name": "getSelfBalance",
      "outputs": [
        {
          "internalType": "uint256",
          "name": "",
          "type": "uint256"
        }
      ],
      "stateMutability": "view",
      "type": "function"
    },
    {
      "inputs": [
        {
          "internalType": "address",
          "name": "_tokenAddress",
          "type": "address"
        }
      ],
      "name": "setTokenAddress",
      "outputs": [],
      "stateMutability": "nonpayable",
      "type": "function"
    },
    {
      "inputs": [
        {
          "internalType": "address[]",
          "name": "_accounts",
          "type": "address[]"
        }
      ],
      "name": "addAddresses",
      "outputs": [],
      "stateMutability": "nonpayable",
      "type": "function"
    },
    {
      "inputs": [],
      "name": "withdraw",
      "outputs": [],
      "stateMutability": "nonpayable",
      "type": "function"
    }
  ],
  "bytecode": "0x608060405234801561001057600080fd5b504260018190555060015460028190555033600360006101000a81548173ffffffffffffffffffffffffffffffffffffffff021916908373ffffffffffffffffffffffffffffffffffffffff160217905550611191806100716000396000f3fe608060405234801561001057600080fd5b506004361061007d5760003560e01c80633628731c1161005b5780633628731c146100da5780633ccfd60b146100f65780637d065c93146101005780638a48ac031461011e5761007d565b8063048a5fed1461008257806308cfaa4a146100a057806326a4e8d2146100be575b600080fd5b61008a61013c565b6040516100979190610e21565b60405180910390f35b6100a86101ee565b6040516100b59190610e21565b60405180910390f35b6100d860048036038101906100d39190610a7c565b6101f8565b005b6100f460048036038101906100ef9190610aa5565b6102ce565b005b6100fe610468565b005b61010861090f565b6040516101159190610e21565b60405180910390f35b610126610919565b6040516101339190610d5f565b60405180910390f35b6000600560009054906101000a900473ffffffffffffffffffffffffffffffffffffffff1673ffffffffffffffffffffffffffffffffffffffff166370a08231306040518263ffffffff1660e01b81526004016101999190610d1b565b60206040518083038186803b1580156101b157600080fd5b505afa1580156101c5573d6000803e3d6000fd5b505050506040513d601f19601f820116820180604052508101906101e99190610b0f565b905090565b6000600254905090565b80600560006101000a81548173ffffffffffffffffffffffffffffffffffffffff021916908373ffffffffffffffffffffffffffffffffffffffff160217905550620805208173ffffffffffffffffffffffffffffffffffffffff166318160ddd6040518163ffffffff1660e01b815260040160206040518083038186803b15801561028357600080fd5b505afa158015610297573d6000803e3d6000fd5b505050506040513d601f19601f820116820180604052508101906102bb9190610b0f565b6102c59190610f39565b60068190555050565b600360009054906101000a900473ffffffffffffffffffffffffffffffffffffffff1673ffffffffffffffffffffffffffffffffffffffff163373ffffffffffffffffffffffffffffffffffffffff161461035e576040517f08c379a000000000000000000000000000000000000000000000000000000000815260040161035590610d81565b60405180910390fd5b600a8151146103a2576040517f08c379a000000000000000000000000000000000000000000000000000000000815260040161039990610e01565b60405180910390fd5b60005b81518110156104645760008282815181106103e9577f4e487b7100000000000000000000000000000000000000000000000000000000600052603260045260246000fd5b60200260200101519080600181540180825580915050600190039060005260206000200160009091909190916101000a81548173ffffffffffffffffffffffffffffffffffffffff021916908373ffffffffffffffffffffffffffffffffffffffff160217905550808061045c90611040565b9150506103a5565b5050565b600360009054906101000a900473ffffffffffffffffffffffffffffffffffffffff1673ffffffffffffffffffffffffffffffffffffffff163373ffffffffffffffffffffffffffffffffffffffff16146104f8576040517f08c379a00000000000000000000000000000000000000000000000000000000081526004016104ef90610d81565b60405180910390fd5b600a60008054905014610540576040517f08c379a000000000000000000000000000000000000000000000000000000000815260040161053790610de1565b60405180910390fd5b6000600254426105509190610fc4565b9050603c811015610596576040517f08c379a000000000000000000000000000000000000000000000000000000000815260040161058d90610da1565b60405180910390fd5b6000600560009054906101000a900473ffffffffffffffffffffffffffffffffffffffff16905060008173ffffffffffffffffffffffffffffffffffffffff166370a08231306040518263ffffffff1660e01b81526004016105f89190610d1b565b60206040518083038186803b15801561061057600080fd5b505afa158015610624573d6000803e3d6000fd5b505050506040513d601f19601f820116820180604052508101906106489190610b0f565b11610688576040517f08c379a000000000000000000000000000000000000000000000000000000000815260040161067f90610dc1565b60405180910390fd5b6000603c836106979190610f39565b90506000600654826106a99190610f6a565b90508273ffffffffffffffffffffffffffffffffffffffff166370a08231306040518263ffffffff1660e01b81526004016106e49190610d1b565b60206040518083038186803b1580156106fc57600080fd5b505afa158015610710573d6000803e3d6000fd5b505050506040513d601f19601f820116820180604052508101906107349190610b0f565b8111156107c7578273ffffffffffffffffffffffffffffffffffffffff166370a08231306040518263ffffffff1660e01b81526004016107749190610d1b565b60206040518083038186803b15801561078c57600080fd5b505afa1580156107a0573d6000803e3d6000fd5b505050506040513d601f19601f820116820180604052508101906107c49190610b0f565b90505b60005b6000805490508110156108e8578373ffffffffffffffffffffffffffffffffffffffff1663a9059cbb6000838154811061082d577f4e487b7100000000000000000000000000000000000000000000000000000000600052603260045260246000fd5b9060005260206000200160009054906101000a900473ffffffffffffffffffffffffffffffffffffffff16600a856108659190610f39565b6040518363ffffffff1660e01b8152600401610882929190610d36565b602060405180830381600087803b15801561089c57600080fd5b505af11580156108b0573d6000803e3d6000fd5b505050506040513d601f19601f820116820180604052508101906108d49190610ae6565b5080806108e090611040565b9150506107ca565b50603c846108f69190610f6a565b6002546109039190610ee3565b60028190555050505050565b6000600654905090565b6060600080548060200260200160405190810160405280929190818152602001828054801561099d57602002820191906000526020600020905b8160009054906101000a900473ffffffffffffffffffffffffffffffffffffffff1673ffffffffffffffffffffffffffffffffffffffff1681526020019060010190808311610953575b5050505050905090565b60006109ba6109b584610e6d565b610e3c565b905080838252602082019050828560208602820111156109d957600080fd5b60005b85811015610a0957816109ef8882610a13565b8452602084019350602083019250506001810190506109dc565b5050509392505050565b600081359050610a2281611116565b92915050565b600082601f830112610a3957600080fd5b8135610a498482602086016109a7565b91505092915050565b600081519050610a618161112d565b92915050565b600081519050610a7681611144565b92915050565b600060208284031215610a8e57600080fd5b6000610a9c84828501610a13565b91505092915050565b600060208284031215610ab757600080fd5b600082013567ffffffffffffffff811115610ad157600080fd5b610add84828501610a28565b91505092915050565b600060208284031215610af857600080fd5b6000610b0684828501610a52565b91505092915050565b600060208284031215610b2157600080fd5b6000610b2f84828501610a67565b91505092915050565b6000610b448383610b50565b60208301905092915050565b610b5981610ff8565b82525050565b610b6881610ff8565b82525050565b6000610b7982610ea9565b610b838185610ec1565b9350610b8e83610e99565b8060005b83811015610bbf578151610ba68882610b38565b9750610bb183610eb4565b925050600181019050610b92565b5085935050505092915050565b6000610bd9601583610ed2565b91507f4f6e6c792061646d696e20697320616c6c6f77656400000000000000000000006000830152602082019050919050565b6000610c19601a83610ed2565b91507f4e6f7420656e6f7567682074696d6520686173207061737365640000000000006000830152602082019050919050565b6000610c59601a83610ed2565b91507f416c6c207061796f7574732068617665206265656e20646f6e650000000000006000830152602082019050919050565b6000610c99601a83610ed2565b91507f4163636f756e74732068617665206e6f74206265656e207365740000000000006000830152602082019050919050565b6000610cd9601f83610ed2565b91507f45786163746c79203130206163636f756e74732061726520616c6c6f776564006000830152602082019050919050565b610d1581611036565b82525050565b6000602082019050610d306000830184610b5f565b92915050565b6000604082019050610d4b6000830185610b5f565b610d586020830184610d0c565b9392505050565b60006020820190508181036000830152610d798184610b6e565b905092915050565b60006020820190508181036000830152610d9a81610bcc565b9050919050565b60006020820190508181036000830152610dba81610c0c565b9050919050565b60006020820190508181036000830152610dda81610c4c565b9050919050565b60006020820190508181036000830152610dfa81610c8c565b9050919050565b60006020820190508181036000830152610e1a81610ccc565b9050919050565b6000602082019050610e366000830184610d0c565b92915050565b6000604051905081810181811067ffffffffffffffff82111715610e6357610e626110e7565b5b8060405250919050565b600067ffffffffffffffff821115610e8857610e876110e7565b5b602082029050602081019050919050565b6000819050602082019050919050565b600081519050919050565b6000602082019050919050565b600082825260208201905092915050565b600082825260208201905092915050565b6000610eee82611036565b9150610ef983611036565b9250827fffffffffffffffffffffffffffffffffffffffffffffffffffffffffffffffff03821115610f2e57610f2d611089565b5b828201905092915050565b6000610f4482611036565b9150610f4f83611036565b925082610f5f57610f5e6110b8565b5b828204905092915050565b6000610f7582611036565b9150610f8083611036565b9250817fffffffffffffffffffffffffffffffffffffffffffffffffffffffffffffffff0483118215151615610fb957610fb8611089565b5b828202905092915050565b6000610fcf82611036565b9150610fda83611036565b925082821015610fed57610fec611089565b5b828203905092915050565b600061100382611016565b9050919050565b60008115159050919050565b600073ffffffffffffffffffffffffffffffffffffffff82169050919050565b6000819050919050565b600061104b82611036565b91507fffffffffffffffffffffffffffffffffffffffffffffffffffffffffffffffff82141561107e5761107d611089565b5b600182019050919050565b7f4e487b7100000000000000000000000000000000000000000000000000000000600052601160045260246000fd5b7f4e487b7100000000000000000000000000000000000000000000000000000000600052601260045260246000fd5b7f4e487b7100000000000000000000000000000000000000000000000000000000600052604160045260246000fd5b61111f81610ff8565b811461112a57600080fd5b50565b6111368161100a565b811461114157600080fd5b50565b61114d81611036565b811461115857600080fd5b5056fea2646970667358221220b6112b5377b529234dcd56695a7bf6687bc07b1234bde6a0c817228308ebd92364736f6c63430008000033",
  "immutableReferences": {},
  "source": "// SPDX-License-Identifier: MIT\npragma solidity ^0.8.0;\n\nimport \"@openzeppelin/contracts/token/ERC20/ERC20.sol\";\n\ncontract Vesting {\n    \n    address[] private accounts;\n    uint256 private startTime;\n    uint256 private lastPayout;\n    address private admin;\n    uint256 private payoutAmount;\n    address private tokenAddress;\n    uint private payout;\n\n    constructor() {\n        startTime = block.timestamp;\n        lastPayout = startTime;\n        admin = msg.sender;\n    }\n\n    // test helper functions\n    function getPayout() public view returns (uint256) {\n        return payout;\n    }\n    function getAccounts() public view returns (address[] memory) {\n        return accounts;\n    }\n    function getLastPayout() public view returns (uint256) {\n        return lastPayout;\n    }\n    function getSelfBalance()public view returns(uint) {\n      return ERC20(tokenAddress).balanceOf(address(this));\n    }\n    \n    function setTokenAddress(address _tokenAddress) public {\n      tokenAddress = _tokenAddress;\n      payout = ERC20(_tokenAddress).totalSupply() / 525600;\n    }\n\n\n    function addAddresses(address[] memory _accounts) public onlyAdmin {\n        require(_accounts.length == 10, \"Exactly 10 accounts are allowed\");\n        for (uint256 i = 0; i < _accounts.length; i++) {\n            accounts.push(_accounts[i]);\n        }\n    }\n\n    function withdraw() public onlyAdmin {\n        require(accounts.length == 10, \"Accounts have not been set\");\n        uint256 time = block.timestamp - lastPayout;\n        require(time >= 60, \"Not enough time has passed\");\n\n        ERC20 token = ERC20(tokenAddress);\n\n        require(token.balanceOf(address(this)) > 0, \"All payouts have been done\");\n        // calculate the number of payouts and amount\n        uint256 timeSlots = time / 60;\n        uint256 amount = timeSlots * payout;\n        if (amount > token.balanceOf(address(this))) {\n            amount = token.balanceOf(address(this));\n        }\n\n        // transfer amount/10 to every account\n        for (uint256 i = 0; i < accounts.length; i++) {\n            token.transfer(accounts[i], amount / 10);\n        }\n\n        // update the time of last payout\n        lastPayout = lastPayout + time * 60;\n    }\n\n    modifier onlyAdmin() {\n        require(msg.sender == admin, \"Only admin is allowed\");\n        _;\n    }\n}\n",
  "sourcePath": "C:\\Users\\priya\\OneDrive\\Desktop\\Projects\\Vesting token\\contracts\\Vesting.sol",
  "compiler": {
    "name": "solc",
    "version": "0.8.0+commit.c7dfd78e.Emscripten.clang"
  },
  "schemaVersion": "3.4.3",
  "updatedAt": "2022-01-05T19:39:17.505Z",
  "devdoc": {
    "kind": "dev",
    "methods": {},
    "version": 1
  },
  "userdoc": {
    "kind": "user",
    "methods": {},
    "version": 1
  }
}